:0A17B30042017100004201730000C2
:09284800E4F5B143B280C2B722ED
:10248900900173E0FEA3E0FFD3900172E09F9001F9
:1024990071E09E400AB207A20792B7E4F0A3F0EFF9
:1024A9004E600F900172E004F0700B900171E0042E
:0724B900F022C207C2B722A6
:09285100900173EEF0A3EFF022F8
:0A283E00EF6003D38001C392B722BC
:04285A00E8F4FAFDA7
:1017BD00420082000042008000004200840000C10F
:0417CD0008011F00F0
:10255C00E4900082F0A3F0538EFE53890F43892040
:10256C0090011CE090285A93F58DF58B90011FE09B
:0F257C0024FF929FD29EC29DD29CD2ACD28E22BF
:1027C80090011CE0540390285A93F58DF58B9001E5
:0727D8001FE024FF929F2285
:1022C700E4900082F0A3F0D2ACD3900081E09400B8
:1022D700900080E064809480402C90011FE0FFB460
:1022E7000109900086E0A2D0B3800AEF900086B47F
:1022F7000209E0A2D0929BF5998003E0F59990003E
:0723070084E4F0A304F022BE
:10239700900082E0FEA3E0FFD39400EE6480948077
:1023A7004017EF9478EE64809480500DE51FC39436
:1023B700034006D208E4F51F22C3EF9478EE648049
:1023C7009480400AE4900082F0A3F0F51F22051FD5
:0123D70022E3
:030023000218C6FA
:1018C600C0E0C0F0C083C082C0D075D000C000C0E8
:0518D60004C006C0077C
:1018DB0090013AE4F0F51F309964C299900080E0D2
:1018EB00FEA3E0FFC3900085E09FEE6480F89000BC
:1018FB0084E0648098503EE475F001120BCBFE74CB
:10190B008625F0F58274003EF583E090013AF09065
:10191B00011FE0FFB4010990013AE0A2D0B3800AA5
:10192B00EF90013AB40209E0A2D0929BF599800E98
:10193B00E0F5998009900080E4F0A3F0D29C3098F8
:10194B006AC29890013AE599F0900082E0FEA3E01C
:10195B00FFD39400EE648094804029EF9478EE647A
:10196B00809480501F90013AE0FF900082E475F064
:10197B0001120BCBFC748625F0F58274003CF583C9
:10198B00EFF08027900118E0FF90013AE0FE6F60C6
:10199B0004EEB45A0F900086EEF0900082E4F0A3B0
:0B19AB0004F08007900082E4F0A3F03D
:1019B600D007D006D004D000D0D0D082D083D0F0CB
:0319C600D0E0323C
:1017D100420002000042000000004200040000C17B
:0B17E10004C1034100070041000601A5
:10276100E4900002F0A3F0759CFD900006E0600586
:0F277100759AC08003759A40758E1043AF012290
:10217E0043AF01E4900002F0A3F0900000E0700283
:10218E00A3E06046900006E0FFB40116900008E060
:10219E00FE30D007439A088E9B8027539AF78E9B6A
:1021AE008020EFB40216900008E0FF30D007539A5B
:1021BE00F78F9B800D439A088F9B8006900008E056
:0B21CE00F59B900004E4F0A304F02255
:1024C000900002E0FEA3E0FF4E700B900007E0C317
:1024D00094C840028013D3EF9400EE64809480404F
:1024E0000D900007E094054005D204E4F02290002E
:0524F00007E004F022EA
:030043000219C9D6
:1019C900C0E0C0F0C083C082C0D075D000C000C0E4
:0719D90004C005C006C007B1
:1019E000E4900007F0E59A30E16C539AFD90000016
:1019F000E0FCA3E0FDC3900005E09DEC6480F8905E
:101A00000004E06480985042E475F001120BCBFEB4
:101A1000740825F0F58274003EF583E0FF9000061F
:101A2000E0FEB4010BEF30D00F439A08F59B807AAB
:101A3000EEB40212EF30D007539AF78F9B806B43BE
:101A40009A088F9B80648F9B8060900000E4F0A3D5
:101A5000F0439A108054539AFEAF9B900002E0FC32
:101A6000A3E0FDD39400EC648094804024ED94784E
:101A7000EC64809480501A900002E475F001120B1F
:101A8000CBFC740825F0F58274003CF583EFF08000
:101A900019900008E0B5070BF0900002E4F0A304F1
:0A1AA000F08007900002E4F0A3F0CC
:101AAA00D007D006D005D004D000D0D0D082D083C1
:051ABA00D0F0D0E03285
:102741000000CC01D8011400F0013C002800E40194
:10275100A0016C007800B40150009C018801440084
:0A1ABF008B128A1389148C158D1602
:101AC90074FF900154F0A3F0E4A3F0A3F0C39001D4
:101AD90057E09516900156E095154003021B93AB0C
:101AE900120514E514AA137002051314F9120A92C7
:101AF900900158F0E0FDFF900154A3E06F540F25C9
:101B0900E0FFE433FE74412FF58274273EF583E448
:101B190093FA740193FB900154E0C4F854F0C86837
:101B2900FEA3E0C4540F48FFEA6EFEEB6FFF90017D
:101B390054EEF0A3EFF0EDC4540FFF900154E0FC14
:101B4900A3E0FDED6F540F25E0FFE433FE74412F50
:101B5900F58274273EF583ECC4F854F0C868FEEDAD
:101B6900C4540F48FFE4936EFE7401936FFF900114
:101B790054EEF0A3EFF0900157E004F06003021A6D
:101B8900D6900156E004F0021AD6900154E0FEA363
:021B9900E0FF6B
:011B9B002227
:1017EC0002450001024300020241000302470000CF
:0424F500AD07AC067D
:1024F900E4900154F0E5482DFDE5473CC2AF75C7AE
:10250900838546C5F5C3AF05EFF5C475C65A75C6CB
:10251900A500E5C2F0E4F5C7F5C5F5C6D2AFE0FF01
:01252900228F
:1025E800AB07AA06E5482BFBE5473AC2AF75C78398
:1025F8008544C5F5C3AF03EFF5C48DC275C65A75DA
:0D260800C6A500E4F5C7F5C5F5C6D2AF22A2
:10264000AD07AC06E5482DFDE5473CC2AF75C78335
:102650008542C5F5C3AF05EFF5C475C65A75C6A565
:0926600000E4F5C7F5C5F5C6223A
:1017FC0041015F004101600042015D00004401595C
:04180C0000000000D8
:04285E0075BBFF2225
:1020A400E490015FF030A708E04401F0C2C480026C
:1020B400D2C430A60B90015FE04402F0C2C5800296
:1020C400D2C530A50B90015FE04404F0C2C1800288
:1020D400D2C130A10B90015FE04408F0C2A280029B
:1020E400D2A230A00B90015FE04410F0C2A38002A2
:1020F400D2A330C00B90015FE04420F0C2A4800260
:10210400D2A490015DE07002A3E0600E90015EE055
:0B21140004F0700690015DE004F02272
:10227D0090015FE0FE6035A3E0FBEE6B6010900116
:10228D005FE0FFA3F090015DE4F0A304F022900164
:10229D005DE0FEA3E0FFD394C8EE940040197C00EE
:1022AD007D0A120B40ED4C700EAF0322E490015DE0
:0A22BD00F0A3F0900160F07F002212
:101ECE008F08E50830E004C2B28002D2B2E50830D5
:101EDE00E12AD2B4E47F64FEFDFC900159E0F8A340
:101EEE00E0F9A3E0FAA3E0FBC3120C71403BB2B3DE
:101EFE00900159120C9300000000802DE50830E38C
:101F0E004FD2B3E47F64FEFDFC900159E0F8A3E0EC
:101F1E00F9A3E0FAA3E0FBC3120C71400CB2B4902B
:101F2E000159120C9300000000900159E0FCA3E04F
:101F3E00FDA3E0FEA3E0FFE4FAF9F8EF2401FFEAC7
:101F4E003EFEE93DFDE83CFC900159120C87800EE7
:101F5E00D2B4D2B3900159120C9300000000E508E0
:091F6E0030E203C2B522D2B52213
:03286200A1AD0025
:10181000410162064101630A4101671041016810FC
:1018200041016100430164FF28620F3200000000A3
:0B1830000000000000000000000000AD
:061B9C008D16AB07AA063E
:101BA200C202751707EE3395E08F1B8E1AF519F5F1
:101BB20018E51630E7182480F516B403047E008079
:101BC20004AE02AF03E48F1B8E1AF519F518AF1B92
:101BD200AE1AAD19AC18EC33500D120C638F1B8E7C
:101BE2001A8D198C18D202AF1BAE1AAD19AC18ECB3
:101BF2004D4E4F6032E47B0AFAF9F8122353EB247C
:101C020030FFAE17151774322EF8A607AF1BAE1AA7
:101C1200AD19AC18E47B0AFAF9F81223538F1B8E24
:101C22001A8D198C1880C0E517B40709FF151774AF
:101C3200322FF8763030020AAF17151774322FF8A8
:101C4200762DC374079517FFC3E5169FFFC3648003
:101C520094804014743A2FF8E4F6AE071FEE600841
:101C6200743A2FF8762080F274332517F9E4FAFBE0
:011C7200224F
:1025BA00EF4E6029EF1F70011EE490013BF0A3F07B
:1025CA00C390013CE0946490013BE0940050E1A385
:0D25DA00E004F070EB90013BE004F080E3C2
:0125E70022D1
:1027DF00D286D284C2877F327E001225BAD2877FFB
:0627EF00507E000225BA35
:0A280B00E4F0EFC454F04DF0E4FFD8
:09281500EF6003D28422C2842288
:1026B700E490013DF0F0C286EF30E704D285800256
:1026C700C285D286EF25E0FF90013DE004F0E0B43B
:0226D70008E415
:0126D90022DE
:10241400E490013CF0EF90016270097406F0A3743B
:102424000AF080077408F0A37410F0EFC454F04D60
:1024340090013CF0E4FF1228157F811226B7900129
:0B2444003CE0FF1226B77F01022815C4
:1027800090013C12280B7F891226B790013CE0FF94
:082790001226B77F0102281593
:02261500AE070E
:10261700EE9001677004740C80027410F0A3F0EE62
:10262700C454F04DFCE4FF1228157F821226B7AF81
:09263700041226B77F01022815E8
:1026FD00AE07AC03E4FF1228157F071226B7AF060D
:10270D001226B7AF051226B7AF041226B77F010206
:02271D0028157D
:10211F008F168D178B188A19891AAB18AA19A91A35
:10212F00120A92FB6048AD17AF161226FD9001629E
:10213F00E0FF2516F5162FFFE433FED3EF947FEE65
:10214F0064809480401B900161E0F516743F9517F1
:10215F00FF900163E0FEEFC39E500122EE2517F5BD
:0F216F00177401251AF51AE43519F51980AC22F9
:10230E008B1C8A1D891EAE05AD07E4FF1228157FB2
:10231E00081226B7AF051226B7AF061226B7AB1CAA
:10232E00051EE51EAA1D7002051D14F9120A92FF64
:10233E001226B7AB1CAA1DA91E120A92FF1226B7AF
:05234E007F01022815CB
:101E19008F178D188B198A1A891BAB19AA1AA91B36
:101E2900120A927003021ECDC394805047120A927F
:101E3900FBAD18AF171226FD900162E0FF042517CC
:101E4900F5172FFFE433FED3EF9481EE648094807D
:101E5900401E900161E0F517743F9518FF900163EA
:101E6900E0FEEFC39E500122900168E02518F518A5
:101E790074018044AB19AA1AA91BAD18AF17122314
:101E89000E900167E0FF042517F5172FFFE433FED5
:101E9900D3EF9481EE64809480401B900161E0F55A
:101EA90017743F9518FF900168E0FEEFC39E50013B
:101EB90022EE2518F5187402251BF51BE4351AF5D1
:051EC9001A021E232295
:1027980090013B12280B7F831226B790013BE0FF84
:0827A8001226B77F010228157B
:10266900AE07AC03E4FF1228157F021226B7AF06A6
:102679001226B7AF051226B7AF041226B7AF1A1242
:0726890026B77F01022815AE
:10258B00AE07AC03E4FF122815E51B60047F048043
:10259B00027F031226B7AF061226B7AF051226B776
:0F25AB00AF041226B7AF1A1226B77F0102281508
:0F282F00E4FF1228157F801226B77F01022815BB
:1027F500AE07E4FF1228157F8A1226B7AF06122608
:06280500B77F0102281557
:06252A008B178A188919C5
:102530008B1A8A1B891CAB1A051CE51CAA1B70028E
:10254000051B14F9120A9270EDC3E51C9519FFE5FD
:0B2550001B9518FE7C007D02120B950D
:01255B00225D
:062690008B168A17891861
:102696008B198A1A891BAB19051BE51BAA1A70022E
:1026A600051A14F9120A9270EDC3E51B951814FF6A
:0126B6002201
:10244F008B098A0A890BE5101510AE0F7002150F54
:10245F004E6026AB09050BE50BAA0A7002050A149C
:10246F00F9120A92FFAB0C050EE50EAA0D700205CC
:0A247F000D14F9EF120AFA80CD22C5
:10271F00120A92FF601AC3648094B04008D3EF642A
:10272F008094B94002C322740129F9E43AFA80E097
:02273F00D322A3
:0A1630008F0F8D108B118A128913A1
:10163A00E51454606005122690800BE51430E4042A
:10164A007F0680027F048F15D200C201E51430E7BD
:10165A0038E4FDFF122798E510240CF51A751B01D2
:10166A007B7FAD10AF0F12258B7D01E4FF12279807
:10167A00E510240CFDE51575F006A4250F2403FBDF
:10168A008D1AAF0F1226698042E5145403603CE5B7
:10169A001430E111E510240CF51A751B017B7FAD9E
:1016AA0010E4FF8018E51575F006A4250F2403FB46
:1016BA00E510240CF51A751B01AD10AF0F12258B1E
:1016CA007D017F01122780C2008007E4FD7F01129D
:1016DA002780E51430E213A200E433FD7F011226CD
:1016EA0015A200E433FD7F018011A200E433FDE47A
:1016FA00FF122615A200E433FDE4FF122414E514B8
:10170A0030E630AB11AA12A91312271F9201300139
:10171A00047F0180027F00E50F2FFF3001047E0263
:10172A0080027E00E5102EFDAB11AA12A913121E2B
:10173A0019806CE51430E5223001047F0180027FB4
:10174A0000E50F2FFF3001047E0280027E00E510C3
:10175A002EFDAB11AA12A9138042E51430E41CAB8A
:10176A0011AA12A913120BE1FFAEF07D06121B9CFF
:10177A00E50F04FFE5102402FD8021E51430E31F84
:10178A00AB11AA12A913120A92FF3395E0FE7D83C8
:10179A00121B9CE50F04FFE5102402FD12211FE530
:0817AA001575F007A4250FFFDF
:0117B2002214
:061C73008F0F8D108B1194
:101C7900AB13AA14A91512252A90013BEFF0E4FD34
:101C89007F011227800DAF10122414AF0F122615F1
:101C9900C3E511648094815003751101C3E5126491
:101CA9008094815003751201E516606730E71BE5E2
:101CB9001214FFE511240DFD90013BE075F00DA410
:101CC9002512FB8D1A1226698049E4FDAF101224F2
:101CD90014AF0F1226150D7F01122780E516B402E5
:101CE90013E51114FDE511240CF51A751B017B7F11
:101CF900E4FF801CE51214FFE51114FD90013BE09F
:101D090075F00DA42512FBE511240CF51A751B01BC
:101D190012258B90013BE0C3940A50047F00800296
:101D29007F01C3E5129FFFAB13AA14A915AD1112C8
:0D1D39001E1990013BE075F00DA42512FF6E
:011D4600227A
:0E183B004101770D4101760D41017500C10993
:101D470012281E12255C12276112285E12284812DB
:101D5700000ED2AF1226DA12002612227D900175EC
:101D6700EFF0A3E0FFA3E0FE6F7038900175E0FF8E
:101D7700B4011BEEB40708900177740DF0800FEEE5
:101D8700900177B40D05740CF080037407F0EFB47D
:101D9700041A900177E0700404F08010E490017752
:101DA700F08009900175E07003A3EEF0900175E0F3
:101DB70060077F0112283E8013900177E0B40C067C
:101DC7007F647E008003E4FFFE122851900177E0D4
:101DD700FF121ECE900175E0FF120046300A1DE586
:101DE7004B7019F50D750E0C750F017510017511F6
:101DF70020FBFA7D037F0212143B8003121F77300A
:101E0700060A1227C8C2067F7F1227B0121197024F
:021E17001D614B
:100E1600B5E7C1A6D7A8D3C355505300C9CFBAA3C7
:100E2600CDB3B2BFB5E7C6F7D3D0CFDEB9ABCBBE35
:100E36000054425531304B56413232305600D4DAE6
:100E4600CFDFCABD00C0EBCFDFCABD00D7D4B6AF77
:100E560000CAD6B6AF0031323030003234303000FE
:100E66003438303000393630300038003700310041
:100E76003200CEDE00C6E600C5BC00BDBBC1F7CA67
:100E8600A7B5E700C5D4C2B7CAA7B5E700B5E7B3AB
:100E9600D8B9D1B900B5E7B3D8C7B7D1B900CFB57E
:100EA600CDB3C9E8D6C30020B9A4D7F7B7BDCABD2C
:100EB6003A0020C6F4B6AFC4A3CABD3A0020B1B307
:100EC600B9E2CAB1BCE43A00CDA8D1B8C9E8D6C3E4
:100ED6000020D5BE2020D6B73A0020B2A8CCD8C272
:100EE600CA3A0020CABEDDCEBB3A0020CDA3D6B991
:100EF600CEBB3A0020D0A3D1E9CEBB3A00CFB5CDC8
:100F0600B3D0C5CFA20020CAE4C8EBB5E7D1B93A41
:100F16000020CAE4C8EBB5E7C1F73A0020CAE4C826
:100F2600EBC6B5C2CA3A0020CAE4B3F6B5E7D1B9F2
:100F36003A0020B8BAD4D8B5E7C1F73A0020CAE4D7
:100F4600B3F6C6B5C2CA3A0020CAE4B3F6B9A6C219
:100F5600CA3A0020B9A6C2CAD2F2CBD83A0020B506
:100F6600E7B3D8B5E7D1B93A0020B3E4B5E7B5E7BA
:100F7600C1F73A0020B3E4B5E7D7B4CCAC3A00B237
:100F8600CECAD0A3D500C7EBCAE4C8EBC9E8D6C31E
:100F9600C3DCC2EB0020C3DCC2EB3A00D6F7B2CB0F
:100FA600B5A50020CFB5CDB3C9E8D6C30020CDA8DE
:100FB600D1B6C9E8D6C30020B2CECAD0A3D5002088
:100FC600CFB5CDB3D0C5CFA200FF0E44FF0E4BFF69
:100FD6000E52FF0E57FF0E5CFF0E61FF0E66FF0EF0
:100FE6006BFF0E70FF0E72FF0E74FF0E76FF0E780B
:100FF600FF0E7BFF0E7E02FF0FCF02FF0FD504FF11
:101006000FDB02FF0FE702FF0FED03FF0FF3FF0EEB
:1010160081FF0E8AFF0E93FF0E9BFF0E8AFF0E8A3C
:10102600FFFF0EA406FF116A0300FF0EAD000101CB
:10103600190201FF0EB80001011A02FFFF0EC300DC
:1010460001011B00FFFF0ECE06FF116A05FFFF0E12
:10105600D7000101180002FF0EE00001011C020387
:10106600FF0EE90001011D0204FF0EF10001011E41
:101076000205FF0EFA0001011F02FFFF0F0306FF24
:10108600116A0BFFFF0F0C0101012004FFFF0F1770
:101096000101012204FFFF0F220101013204FFFFBB
:1010A6000F2D0101012404FFFF0F38010101260461
:1010B600FFFF0F430101013404FFFF0F4E01010141
:1010C6002E04FFFF0F590101012C04FFFF0F6401DD
:1010D60001012804FFFF0F6F0101012A04FFFF0F22
:1010E6007A0101013604FFFF0F8506FF116A0BFF27
:1010F600FF0F0C010100FE01FFFF0F1701010100A8
:1011060001FFFF0F220101011001FFFF0F2D010159
:10111600010201FFFF0F380101010401FFFF0F4328
:101126000101011201FFFF0F4E0101010C01FFFF3A
:101136000F590101010A01FFFF0F640101010601B8
:10114600FFFF0F6F0101010801FFFF0F7A01010187
:101156001401FFFF0F8C06FF116A01FFFF0F9B01B1
:1011660000002700FFFF0FA203FF21D904FFFF0F96
:10117600A905FF102600FFFF0FB305FF104A00FF69
:10118600FF0FBD05FF10EC00FFFF0FC506FF108027
:011196000058
:101849005801200000000000000000000000000016
:1018590000000000000000000000005800FE000029
:10186900000000000000000000000000000000006F
:1018790000000000000048011800000000000000FE
:1018890000092900000000000000000005220000F6
:101899000000004201160000C105C18602270000B0
:0518A9004201380000BF
:1023D800D3900139E09400900138E09400400CA3B8
:1023E800E004F07006900138E004F0900116E0FE79
:1023F800A3E0FFD39400EE94004010EFF44E600B7E
:0C240800E024FFF0900116E034FFF02209
:1027B0001227F5D20590011BE075F064A4FF90018B
:0827C00016E5F0F0A3EFF02292
:08000300E4FF1227F5C20522FB
:1021D90012282FE4FDFF1227807D01E4FF12241449
:1021E9007512187513FF75140E751516E4F5167B1F
:1021F90001FD7F01121C73E4F5127513FF75140EAE
:10220900751522F5167B18FDFF121C73E4FD7F017D
:102219001227807D017F011224147BFF7A0E793702
:072229007D2E7F1202211F30
:060619007B007A00792944
:06061F008B098A0A890B19
:10062500900001120AABFF3395E0FEEF24FFFFEEC9
:1006350034FFFE7C007D03120B95EF75F003A4F5E6
:100645000CE529700312282FAB09AA0AA90B900003
:1006550006120CD5900001120CD512252AEF75F063
:100665000CA4FFC374809FFFE495F0C313EF13F54B
:1006750012AB09AA0AA90B900006120CD59000012D
:10068500120CD58B138A148915751602E4FBFDFF30
:10069500121C73E50C04F50DAB09AA0AA90B900011
:1006A50006120CD5900008120AABFFFD3395E0FC4D
:1006B500E50C2403FBE433FAC3EB9DEC6480F8EA14
:1006C5006480985008E50C2403FEFF8000E50DD3F7
:1006D5009F4003020A6FAB09AA0AA90B90000612F4
:1006E5000CD5E50D75F009A4FFAEF029F9EA3EFA3F
:1006F500900001120CD5C003C002C001AB09AA0AC3
:10070500A90B900006120CD5E92FF9EA3EFA9000E4
:1007150004120AABFF64066004EFB40513AB09AA23
:100725000AA90B900001120AABB50D047F018002E6
:100735007F008F16D001D002D0038B138A14891540
:10074500E50D24FFFFE434FFFE7C007D03120B4022
:10075500EDC454F02412FBE4F512FDFF121C738F57
:100765000EAB09AA0AA90B900006120CD5E50D756A
:10077500F009A429F9EA35F0FA900008120AAB64E9
:10078500026003020927900005120CD5120A92FD9A
:10079500AB09AA0AA90B900006120CD575F009E55C
:1007A5000DA4F58285F083120AABFF3395E0FEEFC9
:1007B5007802C333CE33CED8F924FCF582740F3ECC
:1007C500F583E49314D36480F8ED6480984022ABFC
:1007D50009AA0AA90B900006120CD5E50D75F009BA
:1007E500A429F9EA35F0FA900005120CD5E4120AAD
:1007F500FAAB09AA0AA90B900006120CD5E50D75EE
:10080500F009A429F9EA35F0FA900005120CD51281
:100815000A92C364809480504CAB09AA0AA90B9034
:100825000006120CD575F009E50DA4F58285F08357
:10083500120AABFF3395E0FEEF7802C333CE33CE19
:10084500D8F924FCF582740F3EF583E49314FDE595
:100855000D75F009A429F9EA35F0FA900005120C96
:10086500D5ED120AFAAB09AA0AA90B900006120CDB
:10087500D575F009E50DA4F58285F083120AABFF65
:100885003395E0FEEF7802C333CE33CED8F924FD9D
:10089500F582740F3EF583E493FB740193FA7402B9
:1008A50093F9C003C002C001AB09AA0AA90B9000C5
:1008B50006120CD5E50D75F009A429F9EA35F0FA0B
:1008C500900005120CD5120A92FF3395E08F82F540
:1008D500837403120CC4D001D002D003120CD5C00E
:1008E50003C002C001E50D24FFFFE434FFFE7C00D8
:1008F5007D03120B40EDC454F02412FDAB09AA0A86
:10090500A90B900001120AABB50D0EE5297E00601A
:10091500047FC080087F4180047E007F408F1402E1
:100925000A5FAB09AA0AA90B900006120CD5E50DC2
:1009350075F009A429F9EA35F0FA900004120AAB1A
:10094500707BAB09AA0AA90B900006120CD5E50D20
:1009550075F009A4FFAEF029F9EA3EFA90000512F8
:100965000CD5C003C002C001AB09AA0AA90B9000AF
:1009750006120CD5E92FF9EA3EFA900008120AABE7
:100985006404601BAB09AA0AA90B900001120AAB0B
:10099500B50D0CE52960047F8880067F0980027FFC
:1009A500088F14E50D24FFFFE434FFFE7C007D0372
:1009B500120B40EDC454F02412FD020A5FAB09AAE4
:1009C5000AA90B900006120CD5E50D75F009A429AE
:1009D500F9EA35F0FA900004120AAB6401600302EB
:1009E5000A6AAB09AA0AA90B900006120CD5E50DF7
:1009F50075F009A4FFAEF029F9EA3EFA9000051258
:100A05000CD5C003C002C001AB09AA0AA90B90000E
:100A150006120CD5E92FF9EA3EFA900008120AAB46
:100A25006404601BAB09AA0AA90B900001120AAB6A
:100A3500B50D0CE52960047F9080067F1180027F4B
:100A4500108F14E50D24FFFFE434FFFE7C007D03C9
:100A5500120B40EDC454F02412FDD001D002D00396
:0A0A6500AF0E121630050D02069DBB
:010A6F002264
:10002600750D00750E04750F017510017511187B9D
:0B003600007A407D037F0212143B2281
:1026DA001227DFE4F529F52CF52DF52E752FFF7558
:1026EA00301175316A752A01852A2BFB7A007929FE
:0326FA0002061FB6
:100046008F08E50824F8700302050024FE602724C3
:10005600FA700302019424F8700302019424F870E4
:10006600030202CD24FE600E24F2700302019424E2
:100076002E6003020549E529B40203020549E52974
:100086006401600302011CAF2AEF3395E0FE7C0099
:100096007D09120B2EAB2FE5312FF9E5303EFA9094
:1000A6000004120AABFF701EE508B402067E01C00A
:1000B6000680047E0AC006900005120CD5D006EE16
:1000C600120AD802054CEF6401600302054CE508EC
:1000D600B402047F01800BE508B422047F0A800283
:1000E6007F64EF3395E0FEC006C007AF2AEF339575
:1000F600E0FE7C007D09120B2EAB2FE5312FF9E5D2
:10010600303EFA900005120CD5D007D006EE8FF0DF
:10011600120C0C02054CAF2AEF3395E0FE7C007DF5
:1001260009120B2EAB2FE5312FF9E5303EFA900080
:1001360008120AAB64047037D3E52A6480948340BE
:1001460018AF2AEF3395E0FEEF24FDFFEE34FFFEF5
:100156007D03120B95EF0202A4AB2FAA30A93190B2
:100166000008120AABFF75F003120A700202A4D34C
:10017600E52A648094814005152A02054CAB2FAA16
:1001860030A931900008120AABF52A02054CE52980
:10019600B40203020549E5296401600302023BAF8C
:1001A6002AEF3395E0FE7C007D09120B2EAB2FE57E
:1001B600312FF9E5303EFA900004120AAB701E901A
:1001C6000005120CD5120A92FFE508B410047E0150
:1001D60080027E0AC3EF9E120AFA02054CAF2AEF8E
:1001E6003395E0FE7C007D09120B2EAB2FE5312FF7
:1001F600F9E5303EFA900004120AAB64016003028E
:10020600054C900005120CD5120BE1FFAEF0E50887
:10021600B410047D01800BE508B430047D0A800229
:100226007D64ED3395E0FCC3EF9DFFEE9C8FF012ED
:100236000C4402054CAF2AEF3395E0FE7C007D09A5
:10024600120B2EAB2FE5312FF9E5303EFA90000860
:10025600120AAB64047051AA30A931900008120A40
:10026600ABFF75F003120A70FF3395E0FE7C007D4C
:1002760003120B2EEF2401FFE43EFEAD2AED33956B
:10028600E0FCC3ED9FEE6480F8EC6480985035ED99
:100296002403FFE43CFE7C007D03120B95EF75F012
:1002A60003A404F52A02054CAB2FAA30A93190000D
:1002B60008120AABC36480F8E52A648098500505E5
:1002C6002A02054C0204DCE529B40203020499AFB4
:1002D6002AEF3395E0FE7C007D09120B2EAB2FE54D
:1002E600312FF9E5303EFA900004120AAB6405603E
:1002F60003020377E5312FF9E5303EFA9000051247
:100306000CD58B2C8A2D892E7BFF7A1179588B2F51
:100316008A30893190000E120CD5120BE164E87018
:1003260004E5F064037044852C2F852D30852E312D
:10033600AB2CAA2DA92E74FF9010EC652C700AE543
:100346002E65827004E52D65837017750C01750D99
:1003560000750EFEF50F7510187B017A01792012D3
:10036600244F752C00752D00752E00852A2B02044E
:10037600DCAF2AEF3395E0FE7C007D09120B2EAB35
:100386002FE5312FF9E5303EFA900008120AAB64EA
:100396000470030204AB900004120AABFF6007640A
:1003A6000160030204ABE529640160030204A5E5CC
:1003B6002E452D7003020440AB2FAA30A9319000C0
:1003C6000E120CD5120BE164E87004E5F0640370BC
:1003D60046852C2F852D30852E31AB2CAA2DA92EA6
:1003E60074FF9010EC652C700AE52E65827004E5AA
:1003F6002D65837017750C01750D00750EFEF50FD2
:100406007510187B017A01792012244F752C00751E
:100416002D00752E008021752C00752D00752E007F
:10042600AB2FAA30A931900005120CD58B2F8A303C
:100436008931852B2AE4F52B8059D206AB2FAA30B9
:10044600A93174FF9010EC652F700AE53165827052
:1004560004E53065837042E522600302054C75228F
:1004660001AF2AEF3395E0FEEF2414F524E43EF5C0
:10047600237C007D09120B2EAB2FE5312FF9E530D9
:100486003EFA900005120CD5120BE1F52685F025F3
:10049600754B01E4F52902054C754BFF02054C75B9
:1004A600290102054CAF2AEF3395E0FE7C007D0959
:1004B600120B2EAB2FE5312FF9E5303EFA900004F2
:1004C600120AABFFB40614900005120CD58B2F8AC6
:1004D600308931852A2B752A01806BEF640370669B
:1004E600AB2FE52A75F009A42531F9E43530FA90E9
:1004F6000005120CD5120D05804C754BFEE529B48E
:100506000103E4F529AB2FAA30A931900004120AA1
:10051600ABB40315900005120CD5120D0575290212
:10052600E4F527F528F508801DAB2FAA30A93190F0
:100536000005120CD58B2F8A308931852B2AE4F5DC
:100546002B8003E4F508300A67E54B6063E522B4C7
:10055600012185250D85260E750F00751000751174
:1005660000AB24AA237D067F0212143B5042E4F519
:1005760022803DE54BB4FF1E750D00750E04750F08
:10058600017510017511187B007A407D107F0212EB
:10059600143B501C8017E54B64FE6005E54BB4FD2B
:1005A6000FE54BB4FD02D2061200265003E4F54BCC
:1005B600E50860341206197F7F1227B0AB2FAA30E8
:1005C600A93174FF901080652F700AE5316582703D
:1005D60004E5306583700A900138F0A37464F080F6
:1005E60007E4900138F0A3F0D3900139E0946490C9
:1005F6000138E09400400B120619900138E4F0A38C
:1006060004F0900116E07002A3E0700630050312B4
:03061600000322BC
:1018AE00C18A014BFD41016E0043016B00000041F6
:0718BE00016F204101700FD2
:08143B008D0AAC07AF03AE02FD
:10144300E490013BF0200A02C322C20AE4900000A8
:10145300F0A3F0900002F0A3F0F990016BC9F0A3A0
:10146300F0A3E9F0900008ECF0A3E50AF09001691D
:10147300EEF0A3EFF0900169E090000AF090016AAA
:10148300E090000BF0E50A64016005E50AB402365A
:10149300E50E2407FFE4350DFEEF7803CEC313CE2C
:1014A30013D8F9FF900169EEF0A3EFF0900169E022
:1014B30090000CF090016AE090000DF0E50E5407E7
:1014C30090016EF0801A900169E50DF0A3E50EF02E
:1014D300900169E090000CF090016AE090000DF03B
:1014E300C3E50A648094814048D3E50A6480948606
:1014F300503F7B017A0079087D067C00121ABF9069
:101503000169EEF0A3EFF090016AE090000EF09015
:101513000169E090000FF090016BE50FF0A3E51077
:10152300F0A3E511F0900000E4F0A37408F00216B4
:101533001AE50A640F6009E50A6410600302161ACB
:10154300E50AB40F16E50E2407FFE4350DFEEF7828
:1015530003CEC313CE13D8F9FF8005E50E25E0FFB4
:1015630090000EEFF0E490013BF090000EE0FF904E
:10157300013BE0FEC3EF6480F8EE648098502DAB2E
:101583000FAA10A911E0FFFD3395E08D82F58312B8
:101593000AABFEEF3395E0FC740F2DF58274003C2B
:1015A300F583EEF090013BE004F080BE7B017A000E
:1015B300790890000EE0FF3395E0FEEF2407FDE489
:1015C3003EFC121ABF900169EEF0A3EFF090016A9E
:1015D300E0FF90000EE0FD3395E0FC740F2DF582E3
:1015E30074003CF583EFF0900169E0FF90000EE09A
:1015F300FD3395E0FC74102DF58274003CF583EF08
:10160300F090000EE0FF3395E0FEEF2409FFE43E87
:10161300900000F0A3EFF0D3900001E0940090005D
:0C16230000E064809480400312217ED31C
:01162F002298
:061F770020040302201704
:101F7D00E490013BF0900002E0FCA3E0FD4C7012F8
:101F8D0090016BE0FBA3E0FAA3E0F974FF120AFAEB
:101F9D00806D7B017A007908121ABFEF4E70609048
:101FAD000009E0FFC3648094814054D3EF648094B2
:101FBD0084504CE490013BF090000AE0FF90013B0F
:101FCD00E0FEC3EF6480F8EE6480985032E0FFFDD0
:101FDD003395E0FC740B2DF58274003CF583E0FE27
:101FED0090016BE0FBA3E0FAA3E0F9EF3395E08DF0
:101FFD0082F583EE120B0C90013BE004F080B9E406
:0A200D00900002F0A3F0C204D20A12
:0120170022A6
:10119700E490014FF020080302143A900082E0FC2B
:1011A700A3E0FDD39400EC64809480500302141DE7
:1011B7007B017A007986121ABFEF4E600302141D75
:1011C700900088E0900150F0900089E0900151F084
:1011D70090008AE0900152F090008BE0900153F06C
:1011E700900087E024FC600E24FE70030213432462
:1011F70003600302141D900153E0FF25E09000886F
:10120700F0900150E064407052EFD3940A504CE4E0
:1012170090014FF0900153E075F002A4FF90014F49
:10122700E0FDC39FE5F06480F874809840030212E4
:10123700E9900151E075F002A47C002DFFEC35F038
:10124700FE1224F590014FE02489F582E43400F57D
:1012570083EFF090014FE004F080B9900150E07007
:1012670049A3E0D394FF5042E490014FF0900088E7
:10127700E0FF3395E0FE90014FE0C39FEE6480F8F6
:10128700748098505DE0FF7C007B012420F9EC34EA
:1012970001FA120A92FE74892FF582E43400F5836D
:1012A700EEF090014FE004F080C3900150E064300D
:1012B700600302141DA3E0FFC39400500302141D32
:1012C700EFD394FF400302141D900153E0640160C3
:1012D7000302141D9000887402F0A3E549F0A3E50A
:1012E7004AF0900153E075F002A42403FFE435F0BF
:1012F700FE900080F0FCA3EFF0FD7B017A00798679
:10130700121ABF8E498F4A900080E475F001120BC4
:10131700CBFE748625F0F58274003EF583E54AF02E
:10132700900080E475F001120BCBFE748625F0F572
:101337008274003EF583E549F002141D900150E0E8
:10134700644060030213FBA3E0D3940A4003021333
:10135700FBE490014FF090014FE0FFC39414501C41
:101367007E001224F590014FE0243BF582E434011E
:10137700F583EFF090014FE004F080DAE4FFFE120E
:101387002640900151E0FFB4021CA3E0D39428400B
:10139700037428F0900152E090013FF0900153E070
:1013A700900140F08026900152E0FEEF25E0243BBB
:1013B700F582E43401F583EEF0900153E0FEEF256A
:1013C700E0243CF582E43401F583EEF0E490014F2C
:1013D700F090014FE0FF7E00243BF582E43401F5F5
:1013E70083E0FD1225E890014FE004F0E0C3941478
:1013F70040DF8013900150E0B4501BA3E07017A3A7
:10140700E07013A3E0700F900082E0FFA3E090006C
:1014170080CFF0A3EFF0C208E4900082F0A3F0D3EE
:10142700900081E09400900080E064809480400305
:031437001222C7B7
:01143A00228F
:10000E0075D908E4F5E9F5F975EB8075FB8075DBBC
:04001E0042D2DE22CA
:10281E005389F0438901758CDCE4F58AD2A9D28CF8
:01282E002287
:03000B000222309E
:10223000C0E0C0F0C083C082C0D075D000C000C074
:1022400001C002C003C004C005C006C007758CDC15
:10225000758A001223971224C01220A41224891216
:1022600023D8D007D006D005D004D003D002D001A7
:0D227000D000D0D0D082D083D0F0D0E032AA
:03000000022018C3
:0C201800787FE4F6D8FD75814B02205F54
:100A7000C2D530F707B2D563F0FF05F030E70CB20E
:100A8000D5F4048463F0FF05F080018430D502F4CE
:020A900004223E
:100A9200BB010689828A83E0225002E722BBFE0262
:090AA200E32289828A83E4932295
:100AAB00BB010CE58229F582E5833AF583E0225000
:100ABB0006E92582F8E622BBFE06E92582F8E2224A
:0D0ACB00E58229F582E5833AF583E4932264
:100AD800BB010989828A83F8E028F022500327F7AE
:100AE80022BBFE05F8E328F3228A838982F8E4937F
:020AF8002822B2
:100AFA00BB010689828A83F0225002F722BBFE01DB
:020B0A00F322D4
:100B0C00F8BB010DE58229F582E5833AF583E8F01F
:100B1C00225006E92582C8F622BBFE05E92582C8CB
:020B2C00F222B3
:100B2E00EF8DF0A4A8F0CF8CF0A428CE8DF0A42EDB
:020B3E00FE2295
:100B4000BC000BBE0029EF8DF084FFADF022E4CC99
:100B5000F875F008EF2FFFEE33FEEC33FCEE9DEC62
:100B6000984005FCEE9DFE0FD5F0E9E4CEFD22EDA8
:100B7000F8F5F0EE8420D21CFEADF075F008EF2FF2
:100B8000FFED33FD4007985006D5F0F222C398FDE3
:050B90000FD5F0EA2280
:100B9500C2D5EC30E709B2D5E4C39DFDE49CFCEE7B
:100BA50030E715B2D5E4C39FFFE49EFE120B40C3A8
:100BB500E49DFDE49CFC8003120B4030D507C3E4A3
:060BC5009FFFE49EFE22EA
:100BCB00A3F8E0C5F025F0F0E582158270021583DD
:060BDB00E0C838F0E8223A
:100BE100BB010A89828A83E0F5F0A3E022500687DF
:100BF100F009E71922BBFE07E3F5F009E3192289A1
:0B0C0100828A83E493F5F074019322D3
:100C0C00BB010789828A83020D0B500B09C5F027A3
:100C1C00F7C5F01937F722BBFE0D09F8E325F0F301
:100C2C00C5F019E338F322F889828A83740193257D
:080C3C00F0C5F0F8E493382242
:100C4400BB010A89828A83F0E5F0A3F0225006F7FB
:0F0C540009A7F01922BBFE06F3E5F009F31922F8
:10235300C2D5E830E70FB2D5E4C39BFBE49AFAE4B5
:1023630099F9E498F8EC30E717B2D5122389120DE6
:102373005DE4C39BFBE49AFAE499F9E498F88003DB
:10238300120D5D30D50DE4C39FFFE49EFEE49DFD79
:04239300E49CFC22A8
:0E0C6300C3E49FFFE49EFEE49DFDE49CFC22A2
:100C7100EB9FF5F0EA9E42F0E99D42F0EC6480C8FA
:060C810064809845F0229A
:0C0C8700ECF0A3EDF0A3EEF0A3EFF022E0
:100C9300A8828583F0D083D082120CAA120CAA12E8
:100CA3000CAA120CAAE473E493A3C583C5F0C5830D
:100CB300C8C582C8F0A3C583C5F0C583C8C582C8AB
:010CC300220E
:100CC400F5F0C582A4C582C5F0C583A42583F58348
:010CD40022FD
:100CD500BB010DE58229F582E5833AF583020DF81E
:100CE5005007E92582F8020DEFBBFE07E92582F8DA
:100CF500020E01E58229F582E5833AF583020E0AA3
:060D05008A838982E47379
:10202400021D47E493A3F8E493A34003F68001F26E
:1020340008DFF48029E493A3F85407240CC8C333BD
:10204400C4540F4420C8834004F456800146F6DF8C
:10205400E4800B01020408102040809017B3E47E52
:10206400019360BCA3FF543F30E509541FFEE49381
:10207400A360010ECF54C025E060A840B8E493A348
:10208400FAE493A3F8E493A3C8C582C8CAC583CA73
:10209400F0A3C8C582C8CAC583CADFE9DEE780BE2B
:0118C5000022
:100D0B00C5F0F8A3E028F0C5F0F8E5821582700273
:060D1B001583E038F02210
:100D210075F008758200EF2FFFEE33FECD33CDCC89
:100D310033CCC58233C5829BED9AEC99E58298400C
:100D41000CF582EE9BFEED9AFDEC99FC0FD5F0D6E9
:100D5100E4CEFBE4CDFAE4CCF9A88222B800C1B913
:100D61000059BA002DEC8BF084CFCECDFCE5F0CB51
:100D7100F97818EF2FFFEE33FEED33FDEC33FCEB8A
:100D810033FB10D703994004EB99FB0FD8E5E4F945
:100D9100FA227818EF2FFFEE33FEED33FDEC33FC32
:100DA100C933C910D7059BE99A4007EC9BFCE99A26
:100DB100F90FD8E0E4C9FAE4CCFB2275F010EF2F6B
:100DC100FFEE33FEED33FDCC33CCC833C810D7076B
:100DD1009BEC9AE899400AED9BFDEC9AFCE899F8A6
:0E0DE1000FD5F0DAE4CDFBE4CCFAE4C8F92239
:090DEF00E6FB08E6FA08E6F92229
:090DF800E0FBA3E0FAA3E0F922FC
:090E0100E2FB08E2FA08E2F92222
:0C0E0A00E493FB740193FA740293F92244
:00000001FF
